:100000000C9434000C9451000C9451000C94510049
:100010000C9451000C9451000C9451000C9451001C
:100020000C9451000C9451000C9451000C9451000C
:100030000C9451000C9451000C9451000C945100FC
:100040000C9451000C9451000C9451000C945100EC
:100050000C9451000C9451000C9451000C945100DC
:100060000C9451000C94510011241FBECFEFD8E026
:10007000DEBFCDBF11E0A0E0B1E0ECE8F3E102C0EB
:1000800005900D92A832B107D9F721E0A8E2B1E0BE
:1000900001C01D92AC32B207E1F70E9454000C94EB
:1000A000C4090C94000000004F925F926F927F92FF
:1000B0008F929F92AF92BF92CF92DF92EF92FF9278
:1000C0000F931F938091C00082608093C00080E1F5
:1000D00090E09093C5008093C40088E18093C100B4
:1000E0001092C2008091C20086608093C2008DEBA6
:1000F00090E09093290180932801259A00E010E078
:1001000080E091E06C0182E291E05C0188EE93E096
:100110004C0184E299EB3C018CEF9DE32C017801CA
:10012000EDB7FEB7E650F0400FB6F894FEBF0FBE35
:10013000EDBF14830383C60192838183F682E58237
:100140000E945201EDB7FEB736960FB6F894FEBF87
:100150000FBEEDBFC5010E942D0185B190E2892738
:1001600085B9C4010E94C500B801C7019301A2016D
:100170000E9421078B017C01D3CF9091C000907227
:100180009030D9F38093C6000895CF93DF93CDB715
:10019000DEB724970FB6F894DEBF0FBECDBF9A83AB
:1001A000898389819A8118161906CCF484E893E032
:1001B000E981FA813197FA83E9839C838B832B81D0
:1001C0003C811216130634F4EB81FC813197FC83D9
:1001D000EB83F5CF29813A81121613064CF324964E
:1001E0000FB6F894DEBF0FBECDBFDF91CF9108955B
:1001F000EF92FF920F931F938B017C010A30110540
:1002000041F4E114F10461F08DE090E0F70109950B
:1002100003C0E114F10471F0C801F701099518C099
:10022000A0912A01B0912B01A115B10589F08DE0B3
:100230008D9307C0A0912A01B0912B01A115B105A2
:1002400039F0CD01019690932B0180932A010C93F4
:100250001F910F91FF90EF900895CF92DF92EF9250
:10026000FF920F931F93DC018C918030A1F00091DD
:100270002801109129016D01682F782F770F770BD6
:10028000C8017D010E94F800D6011196F701818115
:1002900080306D0189F71F910F91FF90EF90DF90F3
:1002A000CF900895CF93DF93CDB7DEB722970FB6E7
:1002B000F894DEBF0FBECDBFAE01475F5F4F5A83DC
:1002C000498380912801909129016F8178850E944E
:1002D000720122960FB6F894DEBF0FBECDBFDF913C
:1002E000CF9108952F923F924F925F926F927F929B
:1002F0008F929F92AF92BF92CF92DF92EF92FF9236
:100300000F931F93CF93DF93CDB7DEB7E5970FB66B
:10031000F894DEBF0FBECDBF7F876E872C015DAB2B
:100320004CABCE0144969B8B8A8B01969C838B832E
:100330005E824D822E853F85D9018D91853269F08F
:10034000803009F435C4682F782F770F770BBF877B
:10035000AE87C2010E94F800EDCFF9011181103380
:10036000D90151F01D3240E050E06AE071F480E2C2
:10037000898782E090E005C0198740E050E0CA011B
:100380006AE0FD011281139604C0129680E289870B
:10039000CA011A32F1F4AD01ECA9FDA9DF011296F0
:1003A000BDABACAB20813181B901232F222322E0E8
:1003B00030E00AF09C013D872C879B01C901990F11
:1003C000990B892F28273927281B390BDA011D9112
:1003D00025C0212F20532A30F0F4FA01F602202DF7
:1003E0001124E69F312D1124320F232F3327322F72
:1003F0002227402D5527422B532BE12FFF27E40FB7
:10040000F51FF0971D91212F20532A3038F39D8737
:100410008C879F0103C09D878C879A01398B288B1D
:100420004AE01E3299F49D011D911A3209F043C031
:100430008CA99DA9FC013296FDABECABD9011296BB
:10044000F9011181FC018081918102C08FEF9FEF42
:10045000FC011C3631F41D918C859D8584609D873F
:100460008C874D01153640E050E09F868E8664F003
:100470001337BCF4812F8556823008F445C01F36EF
:1004800009F0ADC288E081C012360CF436C01236D5
:1004900009F47AC0133609F49CC1143609F09FC2DE
:1004A0004EC0133709F45AC1153709F448C018373C
:1004B00009F428C094C2812F80538A3008F041C0CB
:1004C00080E090E0FC01F402802D1124E49F912D46
:1004D0001124980F892F9927982F8827202D3327AB
:1004E000282B392BE12FFF27E20FF31FF0971D91E7
:1004F000812F80538A3038F3ACCF153429F018356A
:1005000009F06AC280E141C05F018CA99DA9FC018C
:100510003296FDABECABFC01E080F18004969DAB24
:100520008CABC280D380B701C6010E94FB08811545
:10053000910551F0FE017496AAE1B1E06AC18AE02A
:1005400024C080E090E084CF8B2D882386E090E06B
:100550000AF0C5011C01B701C60120E030E05901D5
:10056000A5010E948D07082FB701C6019501A501BD
:100570000E948D079DE288230AF09BE200230AF483
:1005800035C1092F560138C182E090E07C018C858D
:100590009D85847090708115910581F48CA99DA929
:1005A000FC013296FDABECABFC01808191811436ED
:1005B000A9F49C01330F330B232F11C0ACA9BDA9A3
:1005C000CD0102969DAB8CAB9D01F901808191819B
:1005D0001496BDABACAB2281338101C09A0161E0BE
:1005E0001436E1E009F0E12D732F77230AF0612D35
:1005F000E6236A01C81AD90A5A01A20AB30AEA878D
:10060000E03009F459012A85203009F46C011837CB
:1006100087E290E01C0119F087E090E01C01DA010C
:100620002D01B601C50197018A010E947F09490188
:100630003A01B401C3019701A8010E946F09C601E4
:10064000861B970B8A30910510F0820D931DAA89A5
:10065000BB89805DF201AE0FBF1F8C9381E0CE1489
:10066000DF0440E050E0A406B50608F0812D81705B
:10067000DF011196803031F4EF31F105640153014F
:1006800008F4CECF2C853D858A85822B8170803001
:1006900041F08A899B89A80FB91F8DE28C9332960D
:1006A000DF0122703070211531056D01E888F9886D
:1006B0004D805E80A1F4C6018E159F05DC0178F4A3
:1006C0008985082F1127C601DC01C201B8015D012F
:1006D0000E94F800D5011196AE15BF05B0F35D017B
:1006E0000A891B89C60101977C01D801AE0DBF1D87
:1006F0008C91682F782F770F770BC2010E94F8003A
:10070000C7018115910579F788899989F501E8175D
:10071000F90700E210E008F00DCE4114510441F059
:10072000C8017F01F201099588899989F70111C0F3
:10073000A0912A01B0912B01A115B10551F0CD0175
:10074000019690932B0180932A0180E28C938889F3
:1007500099893196E817F90700F3ECCD6F018CA960
:100760009DA9FC013296FDABECABFC01808191812F
:100770008115910527E231E009F09C015901C90179
:100780000E94BB09AC0196014217530708F0C9014A
:10079000232F22232C853D850AF0AC012270307076
:1007A0002115310509F0A1C0E888F9884E155F05CB
:1007B00008F09BC08985082F1127CA014C01C2018E
:1007C000B8010E94F800C40101968E159F05B0F390
:1007D0008DC08CA99DA9FC013296FDABECABFC0150
:1007E00060817181762F6627672FFBC0092F560124
:1007F00080E090E8A826B926B701C5010E94F1085B
:1008000081159105AEE1B1E009F4B7C00C8BEB8125
:10081000FC818C9181939F01FD018181F9011196E9
:100820008030C1F71082CE0144960E94BB099C0122
:100830008C859D858270907081159105A1F4E88862
:10084000F9882E153F0578F48985082F1127C901ED
:100850006C01C201B8010E94F800C60101968E1514
:100860009F05B0F301C0C9017C018C89803099F0EB
:100870008E010C5E1F4FD801682F782F770F770BF2
:10088000C2016D010E94F800D6011196F801818124
:1008900080308D0189F788899989F701E817F90770
:1008A00000E210E008F046CD4114510441F0C801C7
:1008B0007F01F201099588899989F70111C0A091FA
:1008C0002A01B0912B01A115B10551F0CD0101967E
:1008D00090932B0180932A0180E28C9388899989D7
:1008E0003196E817F90700F325CDCA018C01D5012F
:1008F0008C918030C1F0960121153105A1F0682F4F
:10090000782F770F770BC2017D010E94F800D70185
:10091000FD018181803039F01196F6013197E115A2
:100920006F01F10561F788899989F801E817F907DE
:1009300000E210E008F0FECC4114510441F0C8017F
:100940007F01F201099588899989F70111C0A09169
:100950002A01B0912B01A115B10551F0CD010196ED
:1009600090932B0180932A0180E28C938889998946
:100970003196E817F90700F3DDCC163609F034C0DC
:10098000C1019195819591090E94F10520E030E027
:1009900040E05FE30E9402099B01AC01B701C50181
:1009A0000E9421074B015C010E9477061816190668
:1009B00014F080E090E0AC019101420F531F4D31E3
:1009C0005105A7E1B1E008F021CF98878F8320E09F
:1009D00030E03A83298358C0103009F4E9C0612F10
:1009E000712F770F770BB5CCB701C60120E030E04F
:1009F0003901A3010E948D07803009F43FC0B7017F
:100A0000C5010E94770691013B872A87821B930BC1
:100A10000E94F105930140E05FE30E9402099B01FF
:100A2000AC01B701C5010E9421074B015C010E9486
:100A300077069C01243631050CF0B7C08A859B856A
:100A40008A319105A7E1B1E008F0E0CE2E398FEFB1
:100A5000380714F42DE93FEF3A832983C9010E9436
:100A6000F1059B01AC01B401C5010E9492074B0145
:100A70005C0120E030E038872F8306C078866F82E3
:100A80007A826982470193019B868A86B701C601F3
:100A9000A9010E948D07450188232AF48DE28C8BE1
:100AA000EB81FC8102C0FE01749631017194619466
:100AB00071088F819885F887EF831C010E94F105EA
:100AC0007B016C01AA84BB84B501C4019701A60116
:100AD0000E9492070E940408CB01990F990B892F5D
:100AE000062F0E943C089701A6010E9402099B0163
:100AF000AC01B501C4010E94200791017B876A8780
:100B00004C012F3F8FEF380719F0EF81F88504C0B3
:100B10008EE2EF81F8858193DF01005D0193C901C9
:100B20000197621673060CF4C6CF163609F47ACE16
:100B3000FD0111838DE209811A81912F992340E0F3
:100B400050E00AF08BE2FD0182837F01C801990F1A
:100B5000990B892F08271927081B190BB801CA01FF
:100B60002DEC3CEC6D010E946F099695879596954A
:100B7000879596958795282F205DF70123832AE096
:100B80009202902D1124829F812D1124890F992783
:100B9000982F8827202D3327282B392B021B130B46
:100BA00000630483F60135963DCEA7E1B1E02ECE79
:100BB000E5960FB6F894DEBF0FBECDBFDF91CF91A3
:100BC0001F910F91FF90EF90DF90CF90BF90AF906B
:100BD0009F908F907F906F905F904F903F902F905D
:100BE00008952F923F924F925F926F927F928F92D1
:100BF0009F92AF92BF92CF92DF92EF92FF920F93AC
:100C00001F93AC0160E070E0141615060CF02CC0C8
:100C10007B0180E89FE320E030E5590120E231E4E8
:100C2000490123EC37E439012FEF3FEF29012BEF86
:100C30003FEF19016B018A0105301105950108F498
:100C4000960105301105A30108F4A4010E940209D0
:100C500005301105A10108F4A201400F511F14161F
:100C600015068A0124F4E8CF80E89FE37B01252F55
:100C700022230AF02BC0EFEF20E030E5590120E2FB
:100C800031E4490123EC37E4390121E030E0290166
:100C900025E030E0190187014C3F5E07950108F01F
:100CA00098014C3F7A01DE2E5E07A30108F0A401F3
:100CB0000E949207A7014C3FED2D5E07910108F0BD
:100CC0009201420F531F252F222332F31F910F91C0
:100CD000FF90EF90DF90CF90BF90AF909F908F905C
:100CE0007F906F905F904F903F902F9008952F923C
:100CF0003F924F925F927F928F929F92AF92BF925C
:100D0000CF92DF92EF92FF920F931F935C014B0102
:100D100000E010E040E251E498010E94EC088823D2
:100D20001AF47401650137C080E090E51C0183EC82
:100D300097E42C01B401C5019101A2010E94EC08C5
:100D4000982F992320E030E00AF09101882340E2B7
:100D500051E40AF0A201B401C5010E9492077B018F
:100D60006C0120E030E040E251E40E94EC08782E73
:100D7000B401C5019101A2010E94EC08882381E021
:100D800090E012F085E090E0080F191F77204701EE
:100D900056010AF0CFCF20E030E040E85FE3B70132
:100DA000C6010E948D0788230AF039C08CEA95ECB1
:100DB0001C0187E297E32C01B701C6019101A20152
:100DC0000E948D07982F992320E030E512F020E053
:100DD00030E0882343EC57E412F040E251E4B701DD
:100DE000C6010E9402095B014C0120E030E040E8AE
:100DF0005FE30E948D07782EB701C6019101A20121
:100E00000E948D0788238BEF9FEF12F08FEF9FEFEB
:100E1000080F191F7720750164010AF4CDCFC801AE
:100E20001F910F91FF90EF90DF90CF90BF90AF9008
:100E30009F908F907F905F904F903F902F9008955C
:100E40005058BB27AA270E9438070C94B2080E946A
:100E5000A40838F00E94AB0820F039F49F3F19F441
:100E600026F40C94A1080EF4E095E7FB0C949B0883
:100E7000E92F0E94C30858F3BA1762077307840763
:100E8000950720F079F4A6F50C94E5080EF4E095AA
:100E90000B2EBA2FA02D0B01B90190010C01CA0134
:100EA000A0011124FF27591B99F0593F50F4503EDF
:100EB00068F11A16F040A22F232F342F4427585FD1
:100EC000F3CF469537952795A795F0405395C9F7E9
:100ED0007EF41F16BA0B620B730B840BBAF09150A1
:100EE000A1F0FF0FBB1F661F771F881FC2F70EC040
:100EF000BA0F621F731F841F48F487957795679513
:100F0000B795F7959E3F08F0B0CF9395880F08F0FE
:100F10009927EE0F9795879508950E94770808F412
:100F200081E008950E94A6070C94B2080E94AB08C5
:100F300058F00E94A40840F029F45F3F29F00C9477
:100F40009B0851110C94E6080C94A1080E94C30858
:100F500068F39923B1F3552391F3951B550BBB27E8
:100F6000AA2762177307840738F09F5F5F4F220F2D
:100F7000331F441FAA1FA9F335D00E2E3AF0E0E824
:100F800032D091505040E695001CCAF72BD0FE2F6E
:100F900029D0660F771F881FBB1F26173707480702
:100FA000AB07B0E809F0BB0B802DBF01FF279358BA
:100FB0005F4F3AF09E3F510578F00C949B080C94DB
:100FC000E6085F3FE4F3983ED4F3869577956795FE
:100FD000B795F7959F5FC9F7880F911D96958795EF
:100FE00097F90895E1E0660F771F881FBB1F62170E
:100FF00073078407BA0720F0621B730B840BBA0BCC
:10100000EE1F88F7E09508950E940B086894B111CF
:101010000C94E60808950E94CB0888F09F5798F03A
:10102000B92F9927B751B0F0E1F0660F771F881FED
:10103000991F1AF0BA95C9F714C0B13091F00E9407
:10104000E508B1E008950C94E508672F782F88270C
:10105000B85F39F0B93FCCF3869577956795B3952E
:10106000D9F73EF490958095709561957F4F8F4F9D
:101070009F4F0895E89409C097FB3EF490958095A2
:10108000709561957F4F8F4F9F4F9923A9F0F92F4E
:1010900096E9BB279395F695879577956795B795CC
:1010A000F111F8CFFAF4BB0F11F460FF1BC06F5FB2
:1010B0007F4F8F4F9F4F16C0882311F096E911C0C4
:1010C000772321F09EE8872F762F05C0662371F0E5
:1010D00096E8862F70E060E02AF09A95660F771FF9
:1010E000881FDAF7880F9695879597F90895990FD5
:1010F0000008550FAA0BE0E8FEEF16161706E807E2
:10110000F907C0F012161306E407F50798F0621B02
:10111000730B840B950B39F40A2661F0232B242BD7
:10112000252B21F408950A2609F4A140A6958FEFF6
:10113000811D811D089597F99F6780E870E060E048
:1011400008959FEF80EC089500240A941616170660
:1011500018060906089500240A94121613061406A8
:1011600005060895092E0394000C11F4882352F00B
:10117000BB0F40F4BF2B11F460FF04C06F5F7F4FC3
:101180008F4F9F4F089557FD9058440F551F59F0AA
:101190005F3F71F04795880F97FB991F61F09F3F64
:1011A00079F087950895121613061406551FF2CF8D
:1011B0004695F1DF08C0161617061806991FF1CFDD
:1011C00086957105610508940895E894BB27662704
:1011D0007727CB0197F908950E94770808F48FEFDD
:1011E00008950E94CB0880E090E020F419F40EF4FA
:1011F0000297839508950E94CB0880E090E009F063
:10120000881F08950E9415090C94B2080E94A40832
:1012100038F00E94AB0820F0952311F00C949B0845
:101220000C94A10811240C94E6080E94C30870F3E2
:10123000959FC1F3950F50E0551F629FF001729F7B
:10124000BB27F00DB11D639FAA27F00DB11DAA1F8A
:10125000649F6627B00DA11D661F829F2227B00DD7
:10126000A11D621F739FB00DA11D621F839FA00D62
:10127000611D221F749F3327A00D611D231F849FB2
:10128000600D211D822F762F6A2F11249F57504009
:101290009AF0F1F088234AF0EE0FFF1FBB1F661F84
:1012A000771F881F91505040A9F79E3F510580F04D
:1012B0000C949B080C94E6085F3FE4F3983ED4F34B
:1012C000869577956795B795F795E7959F5FC1F7F1
:1012D000FE2B880F911D9695879597F90895DB0150
:1012E0008F939F930E94A109BF91AF91A29F800D00
:1012F000911DA39F900DB29F900D11240895A1E21E
:101300001A2EAA1BBB1BFD010DC0AA1FBB1FEE1F7F
:10131000FF1FA217B307E407F50720F0A21BB30BCA
:10132000E40BF50B661F771F881F991F1A9469F746
:1013300060957095809590959B01AC01BD01CF01A2
:1013400008950E94AC09A59F900DB49F900DA49F95
:10135000800D911D11240895A29FB001B39FC0017B
:10136000A39F700D811D1124911DB29F700D811DD1
:101370001124911D0895FC0101900020E9F780954A
:0C13800090958E0F9F1F0895F894FFCFEA
:10138C000A204E756D626572203D2025362E34661E
:10139C00205B7365635D004F56004E614E00494EF5
:0813AC00460020202D2D2D002C
:00000001FF
