:100000000C9434000C943E000C943E000C943E0082
:100010000C943E000C943E000C943E000C943E0068
:100020000C943E000C943E000C943E000C943E0058
:100030000C943E000C943E000C943E000C943E0048
:100040000C943E000C943E000C943E000C943E0038
:100050000C943E000C943E000C943E000C943E0028
:100060000C943E000C943E0011241FBECFEFD8E04C
:10007000DEBFCDBF0E9440000C9483000C940000B2
:10008000EF92FF921F93259A10E280ED97E07C019A
:1000900085B1912F892785B9C7010E945000F8CFFB
:1000A000CF93DF93CDB7DEB724970FB6F894DEBFBA
:1000B0000FBECDBF9A83898389819A81181619064C
:1000C000CCF484E893E0E981FA813197FA83E983FB
:1000D0009C838B832B813C811216130634F4EB81B5
:1000E000FC813197FC83EB83F5CF29813A8112168D
:1000F00013064CF324960FB6F894DEBF0FBECDBFA7
:0A010000DF91CF910895F894FFCF2E
:00000001FF
