:100000000C9434000C9451000C9451000C94510049
:100010000C9451000C9451000C9451000C9451001C
:100020000C9451000C9451000C9451000C9451000C
:100030000C9451000C9454000C9451000C945100F9
:100040000C945E010C9451000C9451000C945100DE
:100050000C9451000C9451000C9451000C945100DC
:100060000C9451000C94510011241FBECFEFD8E026
:10007000DEBFCDBF11E0A0E0B1E0EEE8F4E102C0E8
:1000800005900D92A833B107D9F721E0A8E3B1E0BC
:1000900001C01D92A634B207E1F70E9488000C94BB
:1000A000450A0C940000000078940F920FB60F924E
:1000B0002F933F938F939F935C9A289A8091380156
:1000C0009091390120913A0130913B018F5F9F4F10
:1000D0002F4F3F4F909339018093380130933B016C
:1000E00020933A0185EA8EBD8DB58823EAF78EB557
:1000F00085EA8EBD8DB58823EAF78EB55C98289881
:100100009F918F913F912F910F900FBE0F90189557
:100110008F929F92AF92BF92CF92DF92EF92FF9217
:100120000F931F938FEF85B988B98BB99FEE94B960
:100130008AB984E085BDA89A81E080936E008FEB38
:1001400086BD1CBC90910401917080E7903009F449
:1001500080E58CBD8DB58E7F8DBD8DB581608DBDEB
:100160008CB58C7F8CBD8CB58CBD82EA8093800071
:1001700088E18093810040E050E0509385004093F7
:1001800084002AE631E030938700209386002AEF2E
:1001900030E0309389002093880022E330E03093F0
:1001A0008B0020938A0090916F00916090936F0074
:1001B00090918100987F909381009091810091604F
:1001C000909381009091C00092609093C00020E1D4
:1001D00030E03093C5002093C4008093C10010929A
:1001E000C2008091C20086608093C20086E591E0E3
:1001F00090934301809342018FB7F89428EE33E047
:1002000030933D0120933C0130933F0120933E0108
:100210008FBF789480E191E04C018A01CA015A01B4
:100220009A01409140014030E1F310924001409129
:100230006F004E7F40936F00E0903A01F0903B01D9
:10024000C0903801D090390140916F0041604093D7
:100250006F00A601481B590BC701820B930BEDB72A
:10026000FEB7EA50F0400FB6F894FEBF0FBEEDBFE8
:10027000928781875087478316830583C5019483BE
:1002800083839401328321838F5F9F4F5C010F4FE3
:100290001F4F0E94D301EDB7FEB73A960FB6F89400
:1002A000FEBF0FBEEDBFC6019701BBCF9091C0004E
:1002B00090729030D9F38093C600089578940F928D
:1002C0000FB60F921F9211248F939F9378948FEB08
:1002D00086BD80914101803029F0809141018A954D
:1002E00080934101F89480913C0190913D018115EA
:1002F000910551F080913C0190913D0101979093BF
:100300003D0180933C0112C080913E0190913F01DC
:100310008115910559F080913E0190913F01909394
:100320003D0180933C0181E08093400178949F914E
:100330008F911F900F900FBE0F901895EF92FF9224
:100340000F931F938B017C010A30110541F4E114D6
:10035000F10461F08DE090E0F701099503C0E1142C
:10036000F10471F0C801F701099518C0A09144018A
:10037000B0914501A115B10589F08DE08D9307C0BD
:10038000A0914401B0914501A115B10539F0CD010D
:10039000019690934501809344010C931F910F9116
:1003A000FF90EF900895CF93DF93CDB7DEB72297FC
:1003B0000FB6F894DEBF0FBECDBFAE01475F5F4FF3
:1003C0005A83498380914201909143016F817885DE
:1003D0000E94F30122960FB6F894DEBF0FBECDBF88
:1003E000DF91CF9108952F923F924F925F926F923B
:1003F0007F928F929F92AF92BF92CF92DF92EF92B5
:10040000FF920F931F93CF93DF93CDB7DEB7E5979E
:100410000FB6F894DEBF0FBECDBF7F876E872C016D
:100420005DAB4CABCE0144969B8B8A8B01969C8333
:100430008B835E824D822E853F85D9018D918532D9
:1004400069F0803009F435C4682F782F770F770B67
:10045000BF87AE87C2010E949E01EDCFF9011181D5
:100460001033D90151F01D3240E050E06AE071F4E0
:1004700080E2898782E090E005C0198740E050E083
:10048000CA016AE0FD011281139604C0129680E24F
:100490008987CA011A32F1F4AD01ECA9FDA9DF0187
:1004A0001296BDABACAB20813181B901232F222341
:1004B00022E030E00AF09C013D872C879B01C901B6
:1004C000990F990B892F28273927281B390BDA0117
:1004D0001D9125C0212F20532A30F0F4FA01F60295
:1004E000202D1124E69F312D1124320F232F332785
:1004F000322F2227402D5527422B532BE12FFF2748
:10050000E40FF51FF0971D91212F20532A3038F367
:100510009D878C879F0103C09D878C879A01398BAB
:10052000288B4AE01E3299F49D011D911A3209F080
:1005300043C08CA99DA9FC013296FDABECABD9015F
:100540001296F9011181FC018081918102C08FEF27
:100550009FEFFC011C3631F41D918C859D858460D4
:100560009D878C874D01153640E050E09F868E8632
:1005700064F01337BCF4812F8556823008F445C0EF
:100580001F3609F0ADC288E081C012360CF436C0C7
:10059000123609F47AC0133609F49CC1143609F0F6
:1005A0009FC24EC0133709F45AC1153709F448C029
:1005B000183709F428C094C2812F80538A3008F07C
:1005C00041C080E090E0FC01F402802D1124E49F02
:1005D000912D1124980F892F9927982F8827202D46
:1005E0003327282B392BE12FFF27E20FF31FF0973A
:1005F0001D91812F80538A3038F3ACCF153429F008
:10060000183509F06AC280E141C05F018CA99DA93B
:10061000FC013296FDABECABFC01E080F18004966E
:100620009DAB8CABC280D380B701C6010E947C0910
:100630008115910551F0FE017496A8E0B1E06AC100
:100640008AE024C080E090E084CF8B2D882386E070
:1006500090E00AF0C5011C01B701C60120E030E0BE
:100660005901A5010E940E08082FB701C601950186
:10067000A5010E940E089DE288230AF09BE2002358
:100680000AF435C1092F560138C182E090E07C019F
:100690008C859D85847090708115910581F48CA95D
:1006A0009DA9FC013296FDABECABFC0180819181F0
:1006B0001436A9F49C01330F330B232F11C0ACA9BE
:1006C000BDA9CD0102969DAB8CAB9D01F901808146
:1006D00091811496BDABACAB2281338101C09A01EC
:1006E00061E01436E1E009F0E12D732F77230AF081
:1006F000612DE6236A01C81AD90A5A01A20AB30A6F
:10070000EA87E03009F459012A85203009F46C01A8
:10071000183787E290E01C0119F087E090E01C0197
:10072000DA012D01B601C50197018A010E94000A74
:1007300049013A01B401C3019701A8010E94F009DF
:10074000C601861B970B8A30910510F0820D931D10
:10075000AA89BB89805DF201AE0FBF1F8C9381E037
:10076000CE14DF0440E050E0A406B50608F0812D69
:100770008170DF011196803031F4EF31F1056401B1
:10078000530108F4CECF2C853D858A85822B81705C
:10079000803041F08A899B89A80FB91F8DE28C9324
:1007A0003296DF0122703070211531056D01E88825
:1007B000F9884D805E80A1F4C6018E159F05DC018D
:1007C00078F48985082F1127C601DC01C201B80120
:1007D0005D010E949E01D5011196AE15BF05B0F3D3
:1007E0005D010A891B89C60101977C01D801AE0D04
:1007F000BF1D8C91682F782F770F770BC2010E9455
:100800009E01C7018115910579F788899989F501BC
:10081000E817F90700E210E008F00DCE411451048A
:1008200041F0C8017F01F201099588899989F70192
:1008300011C0A0914401B0914501A115B10551F03D
:10084000CD010196909345018093440180E28C9301
:10085000888999893196E817F90700F3ECCD6F0183
:100860008CA99DA9FC013296FDABECABFC0180810B
:1008700091818115910526E331E009F09C01590130
:10088000C9010E943C0AAC0196014217530708F0C7
:10089000C901232F22232C853D850AF0AC0122704B
:1008A00030702115310509F0A1C0E888F9884E158E
:1008B0005F0508F09BC08985082F1127CA014C01EC
:1008C000C201B8010E949E01C40101968E159F05C8
:1008D000B0F38DC08CA99DA9FC013296FDABECABA9
:1008E000FC0160817181762F6627672FFBC0092F7D
:1008F000560180E090E8A826B926B701C5010E94FC
:10090000720981159105ACE0B1E009F4B7C00C8B18
:10091000EB81FC818C9181939F01FD018181F90123
:1009200011968030C1F71082CE0144960E943C0A95
:100930009C018C859D858270907081159105A1F434
:10094000E888F9882E153F0578F48985082F112746
:10095000C9016C01C201B8010E949E01C601019645
:100960008E159F05B0F301C0C9017C018C898030D0
:1009700099F08E010C5E1F4FD801682F782F770FEA
:10098000770BC2016D010E949E01D6011196F801FC
:10099000818180308D0189F788899989F701E8176D
:1009A000F90700E210E008F046CD4114510441F08F
:1009B000C8017F01F201099588899989F70111C061
:1009C000A0914401B0914501A115B10551F0CD01AF
:1009D0000196909345018093440180E28C9388892D
:1009E00099893196E817F90700F325CDCA018C01E2
:1009F000D5018C918030C1F0960121153105A1F00F
:100A0000682F782F770F770BC2017D010E949E011E
:100A1000D701FD018181803039F01196F6013197BF
:100A2000E1156F01F10561F788899989F801E817E7
:100A3000F90700E210E008F0FECC4114510441F047
:100A4000C8017F01F201099588899989F70111C0D0
:100A5000A0914401B0914501A115B10551F0CD011E
:100A60000196909345018093440180E28C9388899C
:100A700099893196E817F90700F3DDCC163609F0AD
:100A800034C0C1019195819591090E94720620E0C0
:100A900030E040E05FE30E9483099B01AC01B701B5
:100AA000C5010E94A2074B015C010E94F8061816BE
:100AB000190614F080E090E0AC019101420F531F41
:100AC0004D315105A5E0B1E008F021CF98878F8323
:100AD00020E030E03A83298358C0103009F4E9C09F
:100AE000612F712F770F770BB5CCB701C60120E0CE
:100AF00030E03901A3010E940E08803009F43FC0A4
:100B0000B701C5010E94F80691013B872A87821B25
:100B1000930B0E947206930140E05FE30E948309F9
:100B20009B01AC01B701C5010E94A2074B015C010A
:100B30000E94F8069C01243631050CF0B7C08A8566
:100B40009B858A319105A5E0B1E008F0E0CE2E3911
:100B50008FEF380714F42DE93FEF3A832983C90159
:100B60000E9472069B01AC01B401C5010E941308EA
:100B70004B015C0120E030E038872F8306C0788687
:100B80006F827A826982470193019B868A86B701C8
:100B9000C601A9010E940E08450188232AF48DE2AE
:100BA0008C8BEB81FC8102C0FE0174963101719443
:100BB000619471088F819885F887EF831C010E94EA
:100BC00072067B016C01AA84BB84B501C401970144
:100BD000A6010E9413080E948508CB01990F990B6A
:100BE000892F062F0E94BD089701A6010E94830944
:100BF0009B01AC01B501C4010E94A10791017B8753
:100C00006A874C012F3F8FEF380719F0EF81F88585
:100C100004C08EE2EF81F8858193DF01005D0193CE
:100C2000C9010197621673060CF4C6CF163609F493
:100C30007ACEFD0111838DE209811A81912F9923CA
:100C400040E050E00AF08BE2FD0182837F01C801A1
:100C5000990F990B892F08271927081B190BB80121
:100C6000CA012DEC3CEC6D010E94F0099695879528
:100C70009695879596958795282F205DF701238374
:100C80002AE09202902D1124829F812D1124890F38
:100C90009927982F8827202D3327282B392B021BA3
:100CA000130B00630483F60135963DCEA5E0B1E059
:100CB0002ECEE5960FB6F894DEBF0FBECDBFDF9106
:100CC000CF911F910F91FF90EF90DF90CF90BF9049
:100CD000AF909F908F907F906F905F904F903F90DC
:100CE0002F9008952F923F924F925F926F927F9232
:100CF0008F929F92AF92BF92CF92DF92EF92FF922C
:100D00000F931F93AC0160E070E0141615060CF011
:100D10002CC07B0180E89FE320E030E5590120E210
:100D200031E4490123EC37E439012FEF3FEF29018A
:100D30002BEF3FEF19016B018A0105301105950179
:100D400008F4960105301105A30108F4A4010E94DE
:100D5000830905301105A10108F4A201400F511FBC
:100D6000141615068A0124F4E8CF80E89FE37B017E
:100D7000252F22230AF02BC0EFEF20E030E55901A8
:100D800020E231E4490123EC37E4390121E030E08D
:100D9000290125E030E0190187014C3F5E079501EC
:100DA00008F098014C3F7A01DE2E5E07A30108F09F
:100DB000A4010E941308A7014C3FED2D5E0791018D
:100DC00008F09201420F531F252F222332F31F9167
:100DD0000F91FF90EF90DF90CF90BF90AF909F90DA
:100DE0008F907F906F905F904F903F902F900895DD
:100DF0002F923F924F925F927F928F929F92AF92EB
:100E0000BF92CF92DF92EF92FF920F931F935C01FC
:100E10004B0100E010E040E251E498010E946D09AE
:100E200088231AF47401650137C080E090E51C0145
:100E300083EC97E42C01B401C5019101A2010E9449
:100E40006D09982F992320E030E00AF09101882362
:100E500040E251E40AF0A201B401C5010E94130866
:100E60007B016C0120E030E040E251E40E946D091A
:100E7000782EB401C5019101A2010E946D09882359
:100E800081E090E012F085E090E0080F191F7720D4
:100E9000470156010AF0CFCF20E030E040E85FE3A1
:100EA000B701C6010E940E0888230AF039C08CEAF7
:100EB00095EC1C0187E297E32C01B701C601910173
:100EC000A2010E940E08982F992320E030E512F02D
:100ED00020E030E0882343EC57E412F040E251E494
:100EE000B701C6010E9483095B014C0120E030E09C
:100EF00040E85FE30E940E08782EB701C601910119
:100F0000A2010E940E0888238BEF9FEF12F08FEF53
:100F10009FEF080F191F7720750164010AF4CDCFE8
:100F2000C8011F910F91FF90EF90DF90CF90BF907D
:100F3000AF909F908F907F905F904F903F902F90B9
:100F400008955058BB27AA270E94B9070C9433096B
:100F50000E94250938F00E942C0920F039F49F3FA7
:100F600019F426F40C9422090EF4E095E7FB0C9496
:100F70001C09E92F0E94440958F3BA176207730746
:100F80008407950720F079F4A6F50C9466090EF411
:100F9000E0950B2EBA2FA02D0B01B90190010C0189
:100FA000CA01A0011124FF27591B99F0593F50F4A1
:100FB000503E68F11A16F040A22F232F342F4427F9
:100FC000585FF3CF469537952795A795F0405395F1
:100FD000C9F77EF41F16BA0B620B730B840BBAF0C1
:100FE0009150A1F0FF0FBB1F661F771F881FC2F72C
:100FF0000EC0BA0F621F731F841F48F48795779540
:101000006795B795F7959E3F08F0B0CF9395880FF9
:1010100008F09927EE0F9795879508950E94F80894
:1010200008F481E008950E9427080C9433090E9477
:101030002C0958F00E94250940F029F45F3F29F05F
:101040000C941C0951110C9467090C9422090E94FC
:10105000440968F39923B1F3552391F3951B550B7C
:10106000BB27AA2762177307840738F09F5F5F4F7B
:10107000220F331F441FAA1FA9F335D00E2E3AF0BA
:10108000E0E832D091505040E695001CCAF72BD0D2
:10109000FE2F29D0660F771F881FBB1F2617370723
:1010A0004807AB07B0E809F0BB0B802DBF01FF2755
:1010B00093585F4F3AF09E3F510578F00C941C090D
:1010C0000C9467095F3FE4F3983ED4F386957795D7
:1010D0006795B795F7959F5FC9F7880F911D96950E
:1010E000879597F90895E1E0660F771F881FBB1F6A
:1010F000621773078407BA0720F0621B730B840B17
:10110000BA0BEE1F88F7E09508950E948C0868944A
:10111000B1110C94670908950E944C0988F09F57FB
:1011200098F0B92F9927B751B0F0E1F0660F771F0B
:10113000881F991F1AF0BA95C9F714C0B13091F001
:101140000E946609B1E008950C946609672F782F14
:101150008827B85F39F0B93FCCF3869577956795C6
:10116000B395D9F73EF490958095709561957F4F32
:101170008F4F9F4F0895E89409C097FB3EF49095D8
:101180008095709561957F4F8F4F9F4F9923A9F060
:10119000F92F96E9BB279395F695879577956795EF
:1011A000B795F111F8CFFAF4BB0F11F460FF1BC033
:1011B0006F5F7F4F8F4F9F4F16C0882311F096E9C6
:1011C00011C0772321F09EE8872F762F05C0662374
:1011D00071F096E8862F70E060E02AF09A95660F2D
:1011E000771F881FDAF7880F9695879597F90895E6
:1011F000990F0008550FAA0BE0E8FEEF1616170628
:10120000E807F907C0F012161306E407F50798F08F
:10121000621B730B840B950B39F40A2661F0232BA8
:10122000242B252B21F408950A2609F4A140A69524
:101230008FEF811D811D089597F99F6780E870E009
:1012400060E008959FEF80EC089500240A9416163C
:10125000170618060906089500240A9412161306A4
:10126000140605060895092E0394000C11F4882332
:1012700052F0BB0F40F4BF2B11F460FF04C06F5F4E
:101280007F4F8F4F9F4F089557FD9058440F551F24
:1012900059F05F3F71F04795880F97FB991F61F0F8
:1012A0009F3F79F087950895121613061406551F6F
:1012B000F2CF4695F1DF08C0161617061806991FDB
:1012C000F1CF86957105610508940895E894BB27D0
:1012D00066277727CB0197F908950E94F80808F44C
:1012E0008FEF08950E944C0980E090E020F419F4FB
:1012F0000EF40297839508950E944C0980E090E0D7
:1013000009F0881F08950E9496090C9433090E94E1
:10131000250938F00E942C0920F0952311F00C9437
:101320001C090C94220911240C9467090E94440999
:1013300070F3959FC1F3950F50E0551F629FF00128
:10134000729FBB27F00DB11D639FAA27F00DB11D41
:10135000AA1F649F6627B00DA11D661F829F2227CA
:10136000B00DA11D621F739FB00DA11D621F839F51
:10137000A00D611D221F749F3327A00D611D231F27
:10138000849F600D211D822F762F6A2F11249F5775
:1013900050409AF0F1F088234AF0EE0FFF1FBB1F78
:1013A000661F771F881F91505040A9F79E3F510537
:1013B00080F00C941C090C9467095F3FE4F3983E9D
:1013C000D4F3869577956795B795F795E7959F5FE1
:1013D000C1F7FE2B880F911D9695879597F9089573
:1013E000DB018F939F930E94220ABF91AF91A29F2E
:1013F000800D911DA39F900DB29F900D1124089513
:10140000A1E21A2EAA1BBB1BFD010DC0AA1FBB1F08
:10141000EE1FFF1FA217B307E407F50720F0A21B7A
:10142000B30BE40BF50B661F771F881F991F1A94E7
:1014300069F760957095809590959B01AC01BD0111
:10144000CF0108950E942D0AA59F900DB49F900D85
:10145000A49F800D911D11240895A29FB001B39FF8
:10146000C001A39F700D811D1124911DB29F700DAD
:10147000811D1124911D0895FC0101900020E9F7C0
:0E148000809590958E0F9F1F0895F894FFCFD2
:10148E0001010004004F56004E614E00494E4600C9
:10149E000A5B2530346C645D202025356C64205B3E
:1014AE00487A5D203A202850574D20343431303060
:0814BE00205B487A5D29000063
:00000001FF
